:020000040800F2
:1000000010200020B9070008410700084307000836
:1000100045070008470700084907000800000000DE
:100020000000000000000000000000004B07000876
:100030004D070008000000004F07000851070008A6
:10004000D9070008DD070008E1070008E5070008F8
:10005000E9070008ED070008F1070008F5070008A8
:10006000F9070008FD070008010800080508000856
:10007000090800080D080008110800081508000804
:10008000190800081D0800082108000825080008B4
:10009000290800082D080008310800083508000864
:1000A000390800083D080008410800084508000814
:1000B000490800084D0800085108000855080008C4
:1000C000590800085D080008610800086508000874
:1000D000690800086D080008710800087508000824
:1000E000790800087D0800088108000885080008D4
:1000F000890800088D080008910800089508000884
:10010000990800089D080008A1080008A508000833
:10011000A9080008AD080008B1080008B5080008E3
:10012000B9080008BD080008C1080008C508000893
:10013000C9080008CD080008D1080008D508000843
:10014000D9080008DD080008E1080008E5080008F3
:10015000E9080008ED080008F1080008F5080008A3
:10016000F9080008FD080008010900080509000851
:10017000090900080D0900081109000815090008FF
:10018000190900081D09000880B53C48016851F4B0
:10019000700101603A49086850F0010008600020D1
:1001A000384A10600A68384802400A603748384ABE
:1001B0001060086830F4802008600020354908602D
:1001C00000F005F85FF000603349086001BD82B0BF
:1001D00000200190002000902949086850F48030E8
:1001E0000860086810F4003000900198401C0190ED
:1001F0000098002803D10198B0F5A04FF1D108680C
:10020000800302D50120009001E0002000900098BA
:1002100001282FD12148026852F080520260204804
:10022000026852F4404202601648026802600268A6
:1002300052F400420260026852F4A0520260194A6D
:10024000134B1A600A6852F080720A600A689201C1
:10025000FCD540F20571144A1160016889088900D3
:100260000160016851F002010160016811F00C01A8
:100270000829FAD102B070470000000088ED00E0C4
:100280000038024008380240FFFFF6FE103000241C
:10029000043802400C38024008ED00E040380240CB
:1002A0000070004008544007003C024081B000212B
:1002B000009144F2A0114843009002E00098401ED3
:1002C000009000980028F9D101B0704710B50100E6
:1002D000394CC9B289B2200000F0E4F88021200036
:1002E00000F0E4F80028F9D010BD10B586B0012167
:1002F000012000F05BF90121102000F065F90220D7
:100300008DF8040000208DF8060003208DF805000C
:1003100001208DF807004FF4C0600090274C69461B
:10032000200000F06DF907220921200000F0B0F94B
:1003300007220A21200000F0ABF95FF4E1300290BF
:100340000020ADF80C000020ADF80E000020ADF844
:1003500010000020ADF814000C20ADF81200164C6F
:1003600002A9200000F02CF80121200000F08CF8F8
:100370006120FFF7ABFF4FF47A70FFF797FF422041
:10038000FFF7A4FF4FF47A70FFF790FF6320FFF7A9
:100390009DFF4FF47A70FFF789FF4420FFF796FF27
:1003A0004FF47A70FFF782FF0A20FFF78FFF4FF4B8
:1003B000FA70FFF77BFFDBE700100140000002400E
:1003C00038B584B005000C0000200020002000207B
:1003D000A0890028298A31F44051E088014329820C
:1003E000A98928480140A0880143208901436089E8
:1003F0000143A981A98A31F44071A0890143A982EE
:10040000684600F075F81D48854202D01C488542B8
:1004100001D1039900E00299A889000406D51920AA
:10042000414320684000B1FBF0F205E01920414350
:1004300020688000B1FBF0F26420B2FBF0F109010A
:100440000B001B097FF0630000FB0322A889000456
:1004500008D5D20032326420B2FBF0F010F0070071
:10046000014307E0120132326420B2FBF0F010F0D9
:100470000F000143298105B030BD0000001001408C
:1004800000140140F3E9FFFFC9B2002904D08189BB
:1004900051F40051818104E082894DF6FF710A40D8
:1004A00082817047C905C90D8180704700220A000A
:1004B00092B2B2F5007F0088084201D0012000E02E
:1004C0000020C0B270470EE0026843680244083062
:1004D0005FEAC37C44BF4B445B1E52F804CB43F835
:1004E00004CB091FF9D150F8041B0029ECD1704747
:1004F00010B4002100210021022100210221DFF897
:10050000E420116811F00C01002904D0042906D060
:10051000082908D02BE0DFF8D41001602AE0DFF8CA
:10052000D010016026E0DFF8C0402168C1F380519F
:10053000236813F03F03002908D0DFF8B410B1FBA3
:10054000F3F32168C1F388114B4307E0DFF89C10F7
:10055000B1FBF3F32168C1F388114B432168C1F368
:100560000141491C4900B3FBF1F1016002E0DFF8F1
:100570007C100160116811F0F0010909DFF8743096
:10058000595C0468CC404460116811F4E051890A58
:10059000595C4468CC408460116811F46041490B97
:1005A000595C4268CA40C26010BC7047C9B2002999
:1005B00004D011490A681043086004E00E490A6833
:1005C00032EA000008607047C9B2002904D00B4924
:1005D0000A681043086004E008490A6832EA00002B
:1005E0000860704708380240043802400024F400D4
:1005F00000127A00000000203038024044380240E7
:10060000F0B400220022002200233DE0012414FA6D
:1006100003F20D681540954235D1032502685E004E
:1006200015FA06F6B243026006680F795A00974041
:100630003E4306600A79012A02D00A79022A16D1BD
:1006400082685E0015FA06F6B243826086684F79CA
:100650005A0097403E43866042689C4032EA040458
:10066000446042688C799C40A4B222434260C468D2
:100670005A00954034EA0505C560C468CD795A0032
:1006800095402C43C4605B1C102BBFD3F0BC70475B
:1006900070B400230023D2B28B0013F01C039A40E5
:1006A0000B009BB2DB1000EB83030C00A4B2E41040
:1006B00000EB8404246A0F258E0016F01C06B5405A
:1006C000AC431C620B009BB2DB1000EB83031B6A84
:1006D0001A4389B2C91000EB8100026270BC7047F6
:1006E00010B5074979441831064C7C44163404E0AF
:1006F0000A68081D114488470146A142F8D110BD7F
:100700002C0000003C0000004EF68851CEF20001A3
:10071000086840F470000860BFF34F8FBFF36F8F1D
:100720004FF00170E1EE100A704700009BFDFFFFE3
:1007300010000000940000000000002000000000F5
:100740007047FEE7FEE7FEE7FEE770477047704739
:100750007047000000F00DF8002801D0FFF7C0FF3F
:10076000AFF300800020AFF30080FFF7BEFD00F084
:1007700002F80120704700F001B800000746384633
:1007800000F002F8FBE7000080B5AFF30080024AFA
:1007900011001820ABBEFBE7260002000548014609
:1007A00003B4684680F30988AFF30080FFF7ACFF1D
:1007B000FFF7D0FFA5EDF5FE01488047014800474F
:1007C000890100089D0700080000000001020304E1
:1007D0000102030406070809FFF7FEBFFFF7FEBF8B
:1007E000FFF7FEBFFFF7FEBFFFF7FEBFFFF7FEBF3D
:1007F000FFF7FEBFFFF7FEBFFFF7FEBFFFF7FEBF2D
:10080000FFF7FEBFFFF7FEBFFFF7FEBFFFF7FEBF1C
:10081000FFF7FEBFFFF7FEBFFFF7FEBFFFF7FEBF0C
:10082000FFF7FEBFFFF7FEBFFFF7FEBFFFF7FEBFFC
:10083000FFF7FEBFFFF7FEBFFFF7FEBFFFF7FEBFEC
:10084000FFF7FEBFFFF7FEBFFFF7FEBFFFF7FEBFDC
:10085000FFF7FEBFFFF7FEBFFFF7FEBFFFF7FEBFCC
:10086000FFF7FEBFFFF7FEBFFFF7FEBFFFF7FEBFBC
:10087000FFF7FEBFFFF7FEBFFFF7FEBFFFF7FEBFAC
:10088000FFF7FEBFFFF7FEBFFFF7FEBFFFF7FEBF9C
:10089000FFF7FEBFFFF7FEBFFFF7FEBFFFF7FEBF8C
:1008A000FFF7FEBFFFF7FEBFFFF7FEBFFFF7FEBF7C
:1008B000FFF7FEBFFFF7FEBFFFF7FEBFFFF7FEBF6C
:1008C000FFF7FEBFFFF7FEBFFFF7FEBFFFF7FEBF5C
:1008D000FFF7FEBFFFF7FEBFFFF7FEBFFFF7FEBF4C
:1008E000FFF7FEBFFFF7FEBFFFF7FEBFFFF7FEBF3C
:1008F000FFF7FEBFFFF7FEBFFFF7FEBFFFF7FEBF2C
:10090000FFF7FEBFFFF7FEBFFFF7FEBFFFF7FEBF1B
:10091000FFF7FEBFFFF7FEBFFFF7FEBFFFF7FEBF0B
:040000050800079D4B
:00000001FF
